:020000040000FA
:0400000016EF00F007
:100008005082F2A40AEF00F00CEF00F014EF00F0B9
:10001800F294000ED76E000ED66E010E0001CF6F5F
:0800280050921100A4EF08F052
:10060000002020202020202020202020202020200A
:1006100020202020200020202020202020202020FA
:1006200020202020202020202020004C6162352026
:10063000416C6578616E64726520416C61696E0021
:100640004C4F4C20796F75206C6F73740001000A59
:10065000006400E803102753636F7265203D202576
:1006600033640000110E176E000E186E84EF04F054
:10067000250E1F18D8B43FEF03F041EF03F04BEF06
:1006800003F00DC0D9FF0EC0DAFF1FC0DFFF0D4A17
:100690000E2A84EF04F0000E1E6E000E1D6E000E7A
:1006A0001A6E0FC0F6FF10C0F7FF0800F550DFEC20
:1006B0000BF0D8A05EEF03F060EF03F097EF03F0CC
:1006C000000E1E6E000E1D6E1DC001F01EC002F059
:1006D000000E046E0A0E036E37EC0CF001C01DF024
:1006E00002C01EF0D00E136EFF0E146E0FC0F6FF88
:1006F00010C0F7FF0800F550156E166A1350152646
:100700001450162215501D2616501E220F4A102A6C
:100710000FC0F6FF10C0F7FF0800F550DFEC0BF03C
:10072000D8B095EF03F097EF03F064EF03F00FC03C
:10073000F6FF10C0F7FF0F4A102A0800F5CF1FF090
:100740001F50000AD8B495EF04F0640AD8B4AFEF94
:1007500003F00D0AD8B4AFEF03F084EF04F017C034
:10076000D9FF18C0DAFFDECF1BF0DDCF1CF0020E80
:100770001726000E18221CBEC2EF03F0C0EF03F0D4
:10078000C8EF03F0030E1A121B6C1C1ED8B01C2AF3
:10079000010E1F6E1F50020D4D0EF324F66E060E55
:1007A000F420F76E0900F5501B5C0900F5501C5849
:1007B000D8B0DDEF03F0DFEF03F0E1EF03F0EBEF94
:1007C00003F01F2A050E1F18D8A4E9EF03F0EBEF82
:1007D00003F0CAEF03F01D501E10D8B4F2EF03F07F
:1007E000F4EF03F002EF04F01AC013F0030E131637
:1007F000D8B4FDEF03F0FFEF03F002EF04F01D06A5
:10080000D8A01E061F50136E146A1D50135C14509E
:10081000800A156E1E50800A1558D8B012EF04F0E9
:1008200014EF04F01AEF04F01F501D5E000E1E5A64
:100830001EEF04F0000E1E6E000E1D6E1D501E10E9
:10084000D8B425EF04F027EF04F03BEF04F00DC01F
:10085000D9FF0EC0DAFF200EDF6E0D4A0E2A1D06EC
:10086000D8A01E061D501E10D8A439EF04F03BEF8F
:1008700004F027EF04F01AC013F0030E1316D8B4D7
:1008800044EF04F046EF04F04EEF04F00DC0D9FF42
:100890000EC0DAFF2D0EDF6E0D4A0E2A1FC019F0B2
:1008A0007BEF04F01950020D4D0EF324F66E060E88
:1008B000F420F76E0900F5CF03F00A00F5CF04F03D
:1008C0001BC001F01CC002F0DFEC08F001C008F012
:1008D00002C009F0000E0B6E0A0E0A6EB3EC09F0AE
:1008E0000850300F1F6E0DC0D9FF0EC0DAFF1FC0B9
:1008F000DFFF0D4A0E2A19061928D8A482EF04F04A
:1009000084EF04F052EF04F00FC0F6FF10C0F7FFC1
:100910000F4A102A0800F5CF1FF01F50D8A493EFFC
:1009200004F095EF04F038EF03F00DC0D9FF0EC0CE
:10093000DAFF000EDF6E12000E6E000E106E020E59
:100940000F6E0FC001F010C002F0000E046E150E05
:10095000036E37EC0CF0FF0E096EFF0E0A6E600E90
:100960000B6E000E0C6E09500B260A500C22015023
:100970000B2602500C220E500B24D96E000E0C20B8
:10098000DA6E200EDE18D8B4C8EF04F0CAEF04F017
:10099000ACEF05F00FC001F010C002F0000E046EC5
:1009A000150E036E37EC0CF0FF0E096EFF0E0A6E8B
:1009B000600E0B6E000E0C6E09500B260A500C22B6
:1009C00001500B2602500C220E500B24D96E000E43
:1009D0000C20DA6EDE04D8A4F0EF04F0F2EF04F09D
:1009E00006EF05F007C0D9FF08C0DAFFDECF09F037
:1009F000DDCF0AF0010E0926000E0A2207C0D9FF3A
:100A000008C0DAFF09C0DEFF0AC0DDFF0FC001F039
:100A100010C002F0000E046E150E036E37EC0CF0E1
:100A2000FF0E096EFF0E0A6E600E0B6E000E0C6E4E
:100A300009500B260A500C2201500B2602500C22A2
:100A40000E500B24D96E000E0C20DA6E020EDE184A
:100A5000D8A42DEF05F02FEF05F043EF05F007C008
:100A6000D9FF08C0DAFFDECF09F0DDCF0AF0020EB1
:100A70000926000E0A2207C0D9FF08C0DAFF09C004
:100A8000DEFF0AC0DDFF0FC001F010C002F0000E53
:100A9000046E150E036E37EC0CF0FF0E096EFF0EA0
:100AA0000A6E600E0B6E000E0C6E09500B260A507B
:100AB0000C2201500B2602500C220E500B24D96E32
:100AC000000E0C20DA6E030EDE18D8A46AEF05F0D3
:100AD0006CEF05F080EF05F007C0D9FF08C0DAFF22
:100AE000DECF09F0DDCF0AF0030E0926000E0A2240
:100AF00007C0D9FF08C0DAFF09C0DEFF0AC0DDFF6A
:100B00000FC001F010C002F0000E046E150E036E4F
:100B100037EC0CF0FF0E096EFF0E0A6E600E0B6EC6
:100B2000000E0C6E09500B260A500C2201500B26A9
:100B300002500C220E500B24D96E000E0C20DA6EDF
:100B4000200EDF6E0F28046E0E504EEC09F0200EC2
:100B50001FEC0BF0B6EF05F00F06D8A0100610BE84
:100B6000B6EF05F0B4EF05F0A1EF04F012002B0E84
:100B7000F66E060EF76E20EEB4F0140E0900F5CFF7
:100B8000DEFFE806FBE2000E0001CE6F0A0ECD6F1D
:100B9000000ECC6F000ECB6FCCEC0AF00FEC0CF01B
:100BA0004AEC0CF081EC0CF0010E046E010E4EECE0
:100BB00009F0B40E076E000E086EA6EC0BF0020EE4
:100BC000046E010E4EEC09F0010E1FEC0BF0030E4B
:100BD000046E010E4EEC09F0020E1FEC0BF0040E39
:100BE000046E010E4EEC09F0030E1FEC0BF0030E29
:100BF000496E8A0E486E560EE82EFED7482EFCD758
:100C0000492EFAD774EC0AF059EC0CF00001CA6FC7
:100C1000CAC0C9F00001CF05D8A411EF06F013EF48
:100C200006F03CEF06F06DEC06F045EC0BF0E80644
:100C3000D8A41DEF06F01FEF06F031EF06F0CBC091
:100C400020F0CCC021F0A5EC07F0000E0001CE6F23
:100C50000A0ECD6F5FEC08F0000E0001CC6F000EA5
:100C6000CB6F74EC0AF0040E046E0001CD514EEC13
:100C700009F0000E0001CF6FCD0E0A6E000E0B6E54
:100C80001FEC07F059EC0CF00001CA6FC951CA19EA
:100C9000D8B44DEF06F04FEF06F05EEF06F0C95105
:100CA000D8A455EF06F057EF06F05EEF06F0CB0E36
:100CB000076E000E086ECD519CEC04F0CAC0C9F05E
:100CC000210E486E760EE82EFED7482EFCD700F097
:100CD00000F00AEF06F016EF00F0000E416E000E75
:100CE000406E000E436E000E426E9F0E016E000EAF
:100CF000026E8A0E036E000E046E89EC0BF08A0EF3
:100D0000016E000E026E750E036E000E046E89EC0D
:100D10000BF0750E016E000E026E600E036E000E7B
:100D2000046E89EC0BF0000E476E000E466ED890F4
:100D30004634D96E4734DA6E180ED926000EDA2200
:100D4000000EDE6E000EDD6E600E4624D96E000EC3
:100D50004720DA6E200EDF6E464A472A47BEBAEFBA
:100D600006F0475009E1140E465CD8A0BAEF06F031
:100D7000BCEF06F097EF06F009EF07F0F6EC0AF08B
:100D80000DC00FF00EC010F0000E126E140E116E9A
:100D900007EC08F00FC044F010C045F0D890443480
:100DA000D96E4534DA6E180ED926000EDA22DE50DE
:100DB000DE10D8A4DEEF06F0E0EF06F009EF07F052
:100DC000F6EC0AF00DC00FF00EC010F0000E126E1F
:100DD000030E116E07EC08F0010E0F24426E000E98
:100DE0001020436E600E4424D96E000E4520DA6E4A
:100DF00042C0DFFFD8904434D96E4534DA6E180E05
:100E0000D926000EDA22010EDE6E000EDD6E404A9B
:100E1000412A020E4E24156E000E4F20166E1550FC
:100E2000405C4150800A176E1650800A1758D8A0AF
:100E30001CEF07F01EEF07F0BEEF06F01200160ED3
:100E4000F66E060EF76E20EE0DF0140E0900F5CFCB
:100E5000DEFFE806FBE2070E23EC0CF00C6E0C50F4
:100E6000226E236A23BE3EEF07F0235009E1C90E2C
:100E7000225CD8A03EEF07F040EF07F04EEF07F0FE
:100E80000AC0D9FF0BC0DAFFDF500C6E0C280AC075
:100E9000D9FF0BC0DAFFDF6E68EF07F023BE5CEF0F
:100EA00007F0235007E1320E225CD8B05AEF07F06A
:100EB0005CEF07F068EF07F00AC0D9FF0BC0DAFF5C
:100EC000DF500C6E0C040AC0D9FF0BC0DAFFDF6ED6
:100ED0000AC0D9FF0BC0DAFF150EDE18D8A473EFD5
:100EE00007F075EF07F07BEF07F00AC0D9FF0BC0E2
:100EF000DAFF010EDF6E0AC0D9FF0BC0DAFFDF5048
:100F0000D8A485EF07F087EF07F08DEF07F00AC050
:100F1000D9FF0BC0DAFF140EDF6E040E046E010E53
:100F20004EEC09F00D0E076E000E086EA6EC0BF0ED
:100F3000040E046E0AC0D9FF0BC0DAFFDF504EEC7E
:100F400009F0410E1FEC0BF01200400EF66E060E7B
:100F5000F76E20EE24F00C0E0900F5CFDEFFE80658
:100F6000FBE2310E0D6E000E0E6E570E0F6E060E6A
:100F7000106E20C011F021C012F032EC03F076ECBC
:100F80000CF0010E046E040E4EEC09F0240E076EF8
:100F9000000E086EA6EC0BF0030E046E040E4EEC71
:100FA00009F0310E076E000E086EA6EC0BF0030E72
:100FB000236E8A0E226E560EE82EFED7222EFCD706
:100FC000232EFAD776EC0CF021BEF0EF07F021507B
:100FD00009E10B0E205CD8A0F0EF07F0F2EF07F06C
:100FE00006EF08F04E4A4F2A4FBE00EF08F04F5070
:100FF00009E1130E4E5CD8A000EF08F002EF08F0F4
:1010000006EF08F0000E4F6E120E4E6E1200000E2C
:10101000146E10BE10EF08F00EEF08F016EF08F097
:101020000F6C101ED8B0102A010E146E12BE1DEFE8
:1010300008F01BEF08F021EF08F0116C121ED8B079
:10104000122A11501210D8B428EF08F02AEF08F035
:101050004EEF08F0010E136E32EF08F0D890113603
:101060001236132A12AE37EF08F039EF08F02EEFE0
:1010700008F011500F5C12501058D8A042EF08F041
:1010800044EF08F048EF08F011500F5E1250105A6C
:10109000D89012321132132E39EF08F01450D8B410
:1010A00054EF08F056EF08F05AEF08F00F6C101EDE
:1010B000D8B0102A0FC00FF010C010F0120076EC5C
:1010C0000CF0000E0A6E000E096E000E0C6E000E83
:1010D0000B6E09C001F00AC002F0000E046E150E7E
:1010E000036E37EC0CF0600E076E000E086E0150B8
:1010F0000726025008220B500724D96E0C500820F6
:10110000DA6E200EDF6E0B4A0C2A0CBE91EF08F04F
:101110000C5009E1140E0B5CD8A091EF08F093EF8E
:1011200008F069EF08F0094A0A2A0ABEA1EF08F0A0
:101130000A5009E1040E095CD8A0A1EF08F0A3EF62
:1011400008F065EF08F01200D20EF66E160EF76E7C
:10115000000EF86E01EE00F010EE40F00900F5CF41
:10116000EEFFE550E150FAE1440EF66E150EF76E13
:10117000000EF86E00EE60F010EE54F00900F5CFAE
:10118000EEFFE550E150FAE1180EF66E190EF76E1B
:10119000000EF86E00EE4AF010EE04F00900F5CFF4
:1011A000EEFFE550E150FAE10001CF6B4F6A4E6A65
:1011B00050905092000EF86E0001B7EF05F0000E4F
:1011C000066E000E056E03500410D8B4EAEF08F066
:1011D000ECEF08F014EF09F0010E076EF4EF08F0E1
:1011E000D89003360436072A04AEF9EF08F0FBEF77
:1011F00008F0F0EF08F0D890053606360350015C91
:1012000004500258D8A007EF09F009EF09F00EEFDB
:1012100009F00350015E0450025A0580D890043250
:101220000332072EFBEF08F005C001F006C002F004
:101230001200000E096E000E0A6E000E0B6E000EFC
:101240000C6E01A026EF09F028EF09F030EF09F04D
:101250000550092606500A2207500B2208500C227E
:10126000D8900536063607360836D8900432033251
:10127000023201320150021003100410D8A443EFCF
:1012800009F045EF09F021EF09F009C001F00AC0AB
:1012900002F00BC003F00CC004F01200056E6DEFFD
:1012A00009F005507F0F8009E5EC09F080EF09F0A7
:1012B0000550BF0F8009E5EC09F080EF09F00550FB
:1012C000930F8009E5EC09F080EF09F00550D30F8A
:1012D0008009E5EC09F080EF09F00450010AD8B468
:1012E00051EF09F0030AD8B458EF09F0010AD8B455
:1012F0005FEF09F0070AD8B466EF09F080EF09F054
:101300001200000E956E0D0E036EFC0EE82EFED739
:10131000032EFCD780908092030E65EC0CF085ECD8
:101320000CF0030EE82EFED700F0030E65EC0CF077
:1013300085EC0CF0030EE82EFED700F0030E65ECF2
:101340000CF085EC0CF0030EE82EFED700F0020E38
:1013500065EC0CF085EC0CF0030EE82EFED700F0E7
:101360000F0E956E12000A500B10D8B4BAEF09F0A8
:10137000BCEF09F0E0EF09F0010E0C6EC4EF09F0CC
:10138000D8900A360B360C2A0BAEC9EF09F0CBEF1A
:1013900009F0C0EF09F00A50085C0B500958D8A0BA
:1013A000D4EF09F0D6EF09F0DAEF09F00A50085E41
:1013B0000B50095AD8900B320A320C2ECBEF09F0A1
:1013C00008C008F009C009F01200036EC3EC0BF06E
:1013D000000E956E8090809203380F0B65EC0CF038
:1013E00085EC0CF0035065EC0CF085EC0CF0030E72
:1013F000E82EFED700F00304D8B401EF0AF003EFA3
:101400000AF00CEF0AF0020E0318D8A40AEF0AF053
:101410000CEF0AF011EF0AF0A60EE82EFED700F04E
:1014200000F00F0E956EC3EC0BF012001CEF0AF0EB
:10143000014A022A034A042A03C0D9FF04C0DAFF82
:10144000DF50056E01C0D9FF02C0DAFFDF50066E23
:101450000550065C076E0750D8A431EF0AF033EF51
:101460000AF03FEF0AF001C0D9FF02C0DAFFDF50F7
:10147000D8A43DEF0AF03FEF0AF018EF0AF007504A
:10148000016E026A01BE02061200400EE5EC09F090
:10149000000E066E000E076E0650080D000E046E5C
:1014A000010E056EF3500426F45005220750042463
:1014B000D96E000E0520DA6EDF50F8EC0BF0072A2B
:1014C000070E076466EF0AF068EF0AF04CEF0AF0C7
:1014D000062A070E06646FEF0AF071EF0AF04AEF72
:1014E0000AF07DEC0CF0120076EC0CF0000E0B6EA6
:1014F000000E0A6E0A28046E010E4EEC09F00AC0B6
:1015000001F00BC002F0000E046E150E036E37ECF6
:101510000CF0600E0124076E000E0220086EA6EC8F
:101520000BF00A4A0B2A0BBE9FEF0AF00B5009E1A1
:10153000040E0A5CD8A09FEF0AF0A1EF0AF07AEF40
:101540000AF012002020202020202020202020200F
:1015500020202020202020200020202020202020AB
:10156000202020202020202020202020200020209B
:10157000202020202020202020202020202020206B
:10158000202000202020202020202020202020207B
:101590002020202020202000000E956E000E7F6E5F
:1015A0009368000E7E6E000E926ECD80CECF01F05D
:1015B000CFCF02F06FEC0CF07E8EC280000EC16EB9
:1015C000C09EC70EC016F80EC016D58ED59CD59AF3
:1015D000D596D550F80B0209D56E000ED76E000EC9
:1015E000D66EF28AF294F28CF28E12004AC001F0AA
:1015F0004BC002F04CC003F04DC004F06D0E056E00
:101600004E0E066EC60E076E410E086E19EC09F0FE
:1016100001C04AF002C04BF003C04CF004C04DF0D2
:10162000390E4A26300E4B22000E4C22000E4D225F
:10163000FF0E4C140D6E7F0E4D140E6E1200046ED4
:101640000450F8EC0BF0056E35EF0BF0C00EE5EC36
:1016500009F044EF0BF0940EE5EC09F044EF0BF0C9
:10166000D40EE5EC09F044EF0BF00550940AD8B421
:1016700026EF0BF0540AD8B430EF0BF0140AD8B4AC
:101680002BEF0BF044EF0BF01200010EF66E060E7E
:10169000F76E20EE08F0140E0900F5CFDEFFE80625
:1016A000FBE2080E016E000E026E9F0E036E000E2E
:1016B000046E16EC0AF001500210D8A462EF0BF091
:1016C00064EF0BF067EF0BF0000E68EF0BF0010E0C
:1016D00012000804040A111F110015151F040A1135
:1016E000110A1F1F1F1F0E0E04041F1515040415D9
:1016F000151F08041F101E101F00040A0E111F10D2
:101700000E0008040E010F110F00040A0E010F1144
:101710000F0001C005F002C006F093EF0BF0054A80
:10172000062A034A042A03C0D9FF04C0DAFF05C011
:10173000E1FF06C0E2FFDFCFE7FFE750D8A4A3EF49
:101740000BF0A5EF0BF08FEF0BF01200000E096EFF
:10175000B4EF0BF009500724D96E000E0820DA6EA2
:10176000DF501FEC0BF0092A09500724D96E000E38
:101770000820DA6EDF50D8A4C0EF0BF0C2EF0BF0F8
:10178000AAEF0BF0120080908082808400F089EC38
:101790000CF0016E0138F00B026E8094808400F032
:1017A00089EC0CF00212809402BED9EF0BF0DBEF53
:1017B0000BF0C5EF0BF0809202507F0B1200036E0E
:1017C000000E026E3A0E0360E8EF0BF0EAEF0BF04A
:1017D000F4EF0BF02F0E0364F0EF0BF0F2EF0BF0D1
:1017E000F4EF0BF0010E026E02C001F001301200A6
:1017F000036EC3EC0BF0000E956E80808092033870
:101800000F0B65EC0CF085EC0CF0035065EC0CF064
:1018100085EC0CF00F0E956EC3EC0BF0120081EC12
:1018200009F0280EE5EC09F00F0EE5EC09F0010EC9
:10183000E5EC09F0060EE5EC09F0800EE5EC09F0A8
:1018400045EC0AF01200026E02C001F001460146AA
:10185000C2500118C30B0118C26EC282C2B233EF6C
:101860000CF035EF0CF02EEF0CF0C45012000150CC
:101870000302F3CF05F0F4CF06F001500402F35059
:10188000062602500302F350062605C001F006C0EA
:1018900002F01200948E948C000EB06E190EAF6E92
:1018A000B886AC84AC98AC8AAB88AB8E000E7E6EEA
:1018B000120081B25EEF0CF060EF0CF063EF0CF001
:1018C000010E64EF0CF0000E1200026E83CF01F0E7
:1018D000F00E011602500F0B0110836E120001C0B2
:1018E0004AF002C04BF04C6A4D6A1200010EE5EC62
:1018F00009F0800EE5EC09F01200020EE5EC09F0AB
:1019000012000C0EE5EC09F01200808400F08094C7
:0C191000120083500F0B120001000000B9
:020000040020DA
:08000000FFFFFFFFFFFFFFFF00
:020000040030CA
:0E000000FF081F1EFF8B81FF0FC00FE00F4097
:00000001FF
