:020000040000FA
:04000000D4EF06F043
:10060000004C61623620416C6578616E64726520D1
:07061000416C61696E0000FE
:10061800000E0001B36F000EB56F000EB46F000E30
:10062800B76F000EB66FB6C001F0B7C002F0000E8B
:10063800046E140E036EF8EC07F0600E176E000ED1
:10064800186E01501726025018220001B4511724C1
:10065800D96EB5511820DA6E000EDF6EB6C001F003
:10066800B7C002F0000E046E150E036EF8EC07F02A
:10067800540E176E010E186E0150172602501822DC
:100688000001B4511724D96EB5511820DA6E200E26
:10069800DF6EB64BB72BB7BF5BEF03F0B75109E17D
:1006A800040EB65DD8A05BEF03F05DEF03F017EF23
:1006B80003F0B44BB52BB5BF6BEF03F0B55109E1AF
:1006C800140EB45DD8A06BEF03F06DEF03F013EFD9
:1006D80003F0000EB16F000EB06FC6EF03F0FFEC31
:1006E80006F00DC00FF00EC010F0000E126E140EC2
:1006F800116E70EC04F00F500001B26FFFEC06F0C1
:100708000D50030B0001B36FB351140D600E176E3B
:10071800000E186EF3501726F4501822B251172401
:10072800D96E000E1820DA6EDE04D8B49EEF03F0FE
:10073800A0EF03F073EF03F0B351140D600E176EC2
:10074800000E186EF3501726F4501822B2511724D1
:10075800D96E000E1820DA6E010EDF6EB351150D3A
:10076800540E176E010E186EF3501726F450182207
:10077800B2511724D96E000E1820DA6E020EDF6E01
:10078800B04BB12B1550B05DB151800A176E1650A1
:10079800800A1758D8A0D3EF03F0D5EF03F073EF12
:1007A80003F01200000E0E6E0F68020E106E116834
:1007B800020E126E07500810D8A4E5EF03F0E7EF19
:1007C80003F0E8EF03F00F2A030E07180810D8A467
:1007D800F0EF03F0F2EF03F0F3EF03F01006095027
:1007E8000A10D8A4FAEF03F0FCEF03F0FDEF03F0D2
:1007F800112A130E09180A10D8A405EF04F007EF00
:1008080004F008EF04F0120611C013F0146A5CEF4C
:1008180004F00FC015F0166A48EF04F007C001F0A5
:1008280008C002F0000E046E150E036EF8EC07F017
:10083800540E0B6E010E0C6E01500B2602500C224A
:1008480015C001F016C002F0000E046E150E036EFE
:10085800F8EC07F001500B2602500C2209500B2629
:100868000A500C2213500B24D96E14500C20DA6E47
:10087800020EDE18D8A443EF04F045EF04F046EF6B
:1008880004F00E2A154A162A10500B6E0C6A0B50EB
:10089800155C1650800A0D6E0C50800A0D58D8A0B1
:1008A80058EF04F05AEF04F012EF04F0134A142A38
:1008B80012500B6E0C6A0B50135C1450800A0D6EAC
:1008C8000C50800A0D58D8A06CEF04F06EEF04F0BD
:1008D8000DEF04F00E501200000E146E10BE79EFEA
:1008E80004F077EF04F07FEF04F00F6C101ED8B01F
:1008F800102A010E146E12BE86EF04F084EF04F085
:100908008AEF04F0116C121ED8B0122A115012107E
:10091800D8B491EF04F093EF04F0B7EF04F0010EB0
:10092800136E9BEF04F0D89011361236132A12AECC
:10093800A0EF04F0A2EF04F097EF04F011500F5C61
:1009480012501058D8A0ABEF04F0ADEF04F0B1EF9F
:1009580004F011500F5E1250105AD8901232113212
:10096800132EA2EF04F01450D8B4BDEF04F0BFEF7B
:1009780004F0C3EF04F00F6C101ED8B0102A0FC09B
:100988000FF010C010F01200000E1B6E000E1A6E51
:10099800000E1D6E000E1C6E1CC007F01DC008F076
:1009A8001AC009F01BC00AF0D6EC03F0196E1950F2
:1009B800D8B4E1EF04F0E3EF04F0FEEF04F01CC05C
:1009C80001F01DC002F0000E046E150E036EF8EC67
:1009D80007F0540E176E010E186E015017260250BC
:1009E80018221A501724D96E1B501820DA6E195085
:1009F800300FDF6E1C4A1D2A1DBE0CEF05F01D507E
:100A080009E1040E1C5CD8A00CEF05F00EEF05F010
:100A1800D0EF04F01A4A1B2A1BBE1CEF05F01B502E
:100A280009E1140E1A5CD8A01CEF05F01EEF05F0C2
:100A3800CCEF04F01200010EF66E060EF76E20EEF3
:100A480020F0140E0900F5CFDEFFE806FBE228ECE3
:100A580007F0E4EC07F00BEC08F0010E046E010E51
:100A6800E0EC05F0200E066E000E076E94EC07F021
:100A7800020E1F6EE70E1E6E000EE82EFED71E2E0B
:100A8800FCD71F2EFAD700F000F01AEC08F03C6EE5
:100A980068EC05F0000E166E050E156E0CEC03F0F2
:100AA800C8EC04F0A5EC06F01AEC08F03C6E210E38
:100AB8001E6E760EE82EFED71E2EFCD700F000F034
:100AC80058EF05F000EF00F0000E0A6E000E096EF8
:100AD800000E0C6E000E0B6E09C001F00AC002F089
:100AE800000E046E150E036EF8EC07F0000E076E8C
:100AF800010E086E01500726025008220B500724E9
:100B0800D96E0C500820DA6E010EDF6E0B4A0C2AE3
:100B18000CBE98EF05F00C5009E1140E0B5CD8A040
:100B280098EF05F09AEF05F070EF05F0094A0A2AE8
:100B38000ABEA8EF05F00A5009E1040E095CD8A026
:100B4800A8EF05F0AAEF05F06CEF05F01200000E13
:100B5800096E000E0A6E000E0B6E000E0C6E01A0E0
:100B6800B8EF05F0BAEF05F0C2EF05F00550092619
:100B780006500A2207500B2208500C22D89005363E
:100B8800063607360836D89004320332023201326C
:100B98000150021003100410D8A4D5EF05F0D7EFC8
:100BA80005F0B3EF05F009C001F00AC002F00BC070
:100BB80003F00CC004F01200056EFFEF05F00550BD
:100BC8007F0F800945EC06F012EF06F00550BF0FC5
:100BD800800945EC06F012EF06F00550930F8009E6
:100BE80045EC06F012EF06F00550D30F800945ECEE
:100BF80006F012EF06F00450010AD8B4E3EF05F04E
:100C0800030AD8B4EAEF05F0010AD8B4F1EF05F009
:100C1800070AD8B4F8EF05F012EF06F01200000E3C
:100C2800956E0D0E036EFC0EE82EFED7032EFCD734
:100C380080908092030E26EC08F042EC08F0030E38
:100C4800E82EFED700F0030E26EC08F042EC08F080
:100C5800030EE82EFED700F0030E26EC08F042EC57
:100C680008F0030EE82EFED700F0020E26EC08F07E
:100C780042EC08F0030EE82EFED700F00F0E956E3A
:100C88001200036EB1EC07F0000E956E8090809212
:100C980003380F0B26EC08F042EC08F0035026EC62
:100CA80008F042EC08F0030EE82EFED700F003042B
:100CB800D8B461EF06F063EF06F06CEF06F0020EB1
:100CC8000318D8A46AEF06F06CEF06F071EF06F08F
:100CD800A60EE82EFED700F000F00F0E956EB1ECD0
:100CE80007F01200400E45EC06F0000E066E000EEE
:100CF800076E0650080DB80E046E000E056EF35010
:100D08000426F450052207500424D96E000E05204D
:100D1800DA6EDF50CDEC07F0072A070E076497EF6D
:100D280006F099EF06F07DEF06F0062A070E066436
:100D3800A0EF06F0A2EF06F07BEF06F03EEC08F01D
:100D4800120037EC08F0010E046E010EE0EC05F01D
:100D5800000E066E010E076E94EC07F0020E046E8C
:100D6800010EE0EC05F0150E066E010E076E94EC10
:100D780007F0030E046E010EE0EC05F02A0E066E75
:100D8800010E076E94EC07F0040E046E010EE0EC01
:100D980005F03F0E066E010E076E94EC07F0120088
:100DA800E80EF66E0E0EF76E000EF86E00EEB8F056
:100DB80010EE40F00900F5CFEEFFE550E150FAE102
:100DC800920EF66E100EF76E000EF86E00EE3DF005
:100DD80010EE04F00900F5CFEEFFE550E150FAE11E
:100DE80001EE00F0A80EEE6AE806FDE1000EF86ECE
:100DF80000011FEF05F03DC001F03EC002F03FC00A
:100E080003F040C004F06D0E056E4E0E066EC60E61
:100E1800076E410E086EABEC05F001C03DF002C054
:100E28003EF003C03FF004C040F0390E3D26300EBE
:100E38003E22000E3F22000E4022FF0E3F140D6E90
:100E48007F0E40140E6E1200000E956E000E7F6E1F
:100E58009368000E7E6E000E926ECD80CECF01F0AC
:100E6800CFCF02F030EC08F07E8EC280000EC16E4B
:100E7800C09EC70EC016F80EC016D58ED59CD59A42
:100E8800D596D550F80B0209D56EF28AF294F28CF9
:100E9800F28E1200046E0450CDEC07F0056E64EF7C
:100EA80007F0C00E45EC06F073EF07F0940E45EC22
:100EB80006F073EF07F0D40E45EC06F073EF07F079
:100EC8000550940AD8B455EF07F0540AD8B45FEF28
:100ED80007F0140AD8B45AEF07F073EF07F01200BE
:100EE8000804040A111F11001F1F1F1F1F1F1F1FA7
:100EF8000204040E1F1F1F0E1F1515040415151FCD
:100F080008041F101E101F00040A0E111F100E00E7
:100F180008040E010F110F00040A0E010F110F0033
:100F2800000E086EA2EF07F008500624D96E000ED6
:100F38000720DA6EDF504EEC07F0082A0850062426
:100F4800D96E000E0720DA6EDF50D8A4AEEF07F096
:100F5800B0EF07F098EF07F012008090808280844D
:100F680000F046EC08F0016E0138F00B026E809438
:100F7800808400F046EC08F00212809402BEC7EFAD
:100F880007F0C9EF07F0B3EF07F0809202507F0B2C
:100F98001200036EB1EC07F0000E956E808080920F
:100FA80003380F0B26EC08F042EC08F0035026EC4F
:100FB80008F042EC08F00F0E956EB1EC07F0120045
:100FC80013EC06F0280E45EC06F00F0E45EC06F083
:100FD800010E45EC06F0060E45EC06F0800E45ECD9
:100FE80006F076EC06F0120001500302F3CF05F08C
:100FF800F4CF06F001500402F35006260250030213
:10100800F350062605C001F006C002F01200948EC7
:10101800948C000EB06E190EAF6EB886AC84AC9886
:10102800AC8AAB88AB8E000E7E6E120081B21FEFC9
:1010380008F021EF08F024EF08F0010E25EF08F082
:10104800000E1200026E83CF01F0F00E011602505E
:101058000F0B0110836E120001C03DF002C03EF07C
:101068003F6A406A1200010E45EC06F0800E45EC1E
:1010780006F01200020E45EC06F01200808400F023
:0E1088008094120083500F0B12000100000034
:020000040020DA
:08000000FFFFFFFFFFFFFFFF00
:020000040030CA
:0E000000FF081F1EFF8B81FF0FC00FE00F4097
:00000001FF
